{
  "abi": [
    {
      "inputs": [
        {
          "internalType": "address",
          "name": "_ctf",
          "type": "address"
        },
        {
          "internalType": "address",
          "name": "_finder",
          "type": "address"
        }
      ],
      "stateMutability": "nonpayable",
      "type": "constructor"
    },
    {
      "inputs": [],
      "name": "Flagged",
      "type": "error"
    },
    {
      "inputs": [],
      "name": "Initialized",
      "type": "error"
    },
    {
      "inputs": [],
      "name": "InvalidAncillaryData",
      "type": "error"
    },
    {
      "inputs": [],
      "name": "InvalidOOPrice",
      "type": "error"
    },
    {
      "inputs": [],
      "name": "InvalidPayouts",
      "type": "error"
    },
    {
      "inputs": [],
      "name": "NotAdmin",
      "type": "error"
    },
    {
      "inputs": [],
      "name": "NotFlagged",
      "type": "error"
    },
    {
      "inputs": [],
      "name": "NotInitialized",
      "type": "error"
    },
    {
      "inputs": [],
      "name": "NotOptimisticOracle",
      "type": "error"
    },
    {
      "inputs": [],
      "name": "NotReadyToResolve",
      "type": "error"
    },
    {
      "inputs": [],
      "name": "Paused",
      "type": "error"
    },
    {
      "inputs": [],
      "name": "PriceNotAvailable",
      "type": "error"
    },
    {
      "inputs": [],
      "name": "Resolved",
      "type": "error"
    },
    {
      "inputs": [],
      "name": "SafetyPeriodNotPassed",
      "type": "error"
    },
    {
      "inputs": [],
      "name": "SafetyPeriodPassed",
      "type": "error"
    },
    {
      "inputs": [],
      "name": "UnsupportedToken",
      "type": "error"
    },
    {
      "anonymous": false,
      "inputs": [
        {
          "indexed": true,
          "internalType": "bytes32",
          "name": "questionID",
          "type": "bytes32"
        },
        {
          "indexed": true,
          "internalType": "address",
          "name": "owner",
          "type": "address"
        },
        {
          "indexed": false,
          "internalType": "bytes",
          "name": "update",
          "type": "bytes"
        }
      ],
      "name": "AncillaryDataUpdated",
      "type": "event"
    },
    {
      "anonymous": false,
      "inputs": [
        {
          "indexed": true,
          "internalType": "address",
          "name": "admin",
          "type": "address"
        },
        {
          "indexed": true,
          "internalType": "address",
          "name": "newAdminAddress",
          "type": "address"
        }
      ],
      "name": "NewAdmin",
      "type": "event"
    },
    {
      "anonymous": false,
      "inputs": [
        {
          "indexed": true,
          "internalType": "bytes32",
          "name": "questionID",
          "type": "bytes32"
        },
        {
          "indexed": false,
          "internalType": "uint256[]",
          "name": "payouts",
          "type": "uint256[]"
        }
      ],
      "name": "QuestionEmergencyResolved",
      "type": "event"
    },
    {
      "anonymous": false,
      "inputs": [
        {
          "indexed": true,
          "internalType": "bytes32",
          "name": "questionID",
          "type": "bytes32"
        }
      ],
      "name": "QuestionFlagged",
      "type": "event"
    },
    {
      "anonymous": false,
      "inputs": [
        {
          "indexed": true,
          "internalType": "bytes32",
          "name": "questionID",
          "type": "bytes32"
        },
        {
          "indexed": true,
          "internalType": "uint256",
          "name": "requestTimestamp",
          "type": "uint256"
        },
        {
          "indexed": true,
          "internalType": "address",
          "name": "creator",
          "type": "address"
        },
        {
          "indexed": false,
          "internalType": "bytes",
          "name": "ancillaryData",
          "type": "bytes"
        },
        {
          "indexed": false,
          "internalType": "address",
          "name": "rewardToken",
          "type": "address"
        },
        {
          "indexed": false,
          "internalType": "uint256",
          "name": "reward",
          "type": "uint256"
        },
        {
          "indexed": false,
          "internalType": "uint256",
          "name": "proposalBond",
          "type": "uint256"
        }
      ],
      "name": "QuestionInitialized",
      "type": "event"
    },
    {
      "anonymous": false,
      "inputs": [
        {
          "indexed": true,
          "internalType": "bytes32",
          "name": "questionID",
          "type": "bytes32"
        }
      ],
      "name": "QuestionPaused",
      "type": "event"
    },
    {
      "anonymous": false,
      "inputs": [
        {
          "indexed": true,
          "internalType": "bytes32",
          "name": "questionID",
          "type": "bytes32"
        }
      ],
      "name": "QuestionReset",
      "type": "event"
    },
    {
      "anonymous": false,
      "inputs": [
        {
          "indexed": true,
          "internalType": "bytes32",
          "name": "questionID",
          "type": "bytes32"
        },
        {
          "indexed": true,
          "internalType": "int256",
          "name": "settledPrice",
          "type": "int256"
        },
        {
          "indexed": false,
          "internalType": "uint256[]",
          "name": "payouts",
          "type": "uint256[]"
        }
      ],
      "name": "QuestionResolved",
      "type": "event"
    },
    {
      "anonymous": false,
      "inputs": [
        {
          "indexed": true,
          "internalType": "bytes32",
          "name": "questionID",
          "type": "bytes32"
        }
      ],
      "name": "QuestionUnflagged",
      "type": "event"
    },
    {
      "anonymous": false,
      "inputs": [
        {
          "indexed": true,
          "internalType": "bytes32",
          "name": "questionID",
          "type": "bytes32"
        }
      ],
      "name": "QuestionUnpaused",
      "type": "event"
    },
    {
      "anonymous": false,
      "inputs": [
        {
          "indexed": true,
          "internalType": "address",
          "name": "admin",
          "type": "address"
        },
        {
          "indexed": true,
          "internalType": "address",
          "name": "removedAdmin",
          "type": "address"
        }
      ],
      "name": "RemovedAdmin",
      "type": "event"
    },
    {
      "inputs": [],
      "name": "EMERGENCY_SAFETY_PERIOD",
      "outputs": [
        {
          "internalType": "uint256",
          "name": "",
          "type": "uint256"
        }
      ],
      "stateMutability": "view",
      "type": "function"
    },
    {
      "inputs": [],
      "name": "MAX_ANCILLARY_DATA",
      "outputs": [
        {
          "internalType": "uint256",
          "name": "",
          "type": "uint256"
        }
      ],
      "stateMutability": "view",
      "type": "function"
    },
    {
      "inputs": [],
      "name": "YES_OR_NO_IDENTIFIER",
      "outputs": [
        {
          "internalType": "bytes32",
          "name": "",
          "type": "bytes32"
        }
      ],
      "stateMutability": "view",
      "type": "function"
    },
    {
      "inputs": [
        {
          "internalType": "address",
          "name": "admin",
          "type": "address"
        }
      ],
      "name": "addAdmin",
      "outputs": [],
      "stateMutability": "nonpayable",
      "type": "function"
    },
    {
      "inputs": [
        {
          "internalType": "address",
          "name": "",
          "type": "address"
        }
      ],
      "name": "admins",
      "outputs": [
        {
          "internalType": "uint256",
          "name": "",
          "type": "uint256"
        }
      ],
      "stateMutability": "view",
      "type": "function"
    },
    {
      "inputs": [],
      "name": "collateralWhitelist",
      "outputs": [
        {
          "internalType": "contract IAddressWhitelist",
          "name": "",
          "type": "address"
        }
      ],
      "stateMutability": "view",
      "type": "function"
    },
    {
      "inputs": [],
      "name": "ctf",
      "outputs": [
        {
          "internalType": "contract IConditionalTokens",
          "name": "",
          "type": "address"
        }
      ],
      "stateMutability": "view",
      "type": "function"
    },
    {
      "inputs": [
        {
          "internalType": "bytes32",
          "name": "questionID",
          "type": "bytes32"
        },
        {
          "internalType": "uint256[]",
          "name": "payouts",
          "type": "uint256[]"
        }
      ],
      "name": "emergencyResolve",
      "outputs": [],
      "stateMutability": "nonpayable",
      "type": "function"
    },
    {
      "inputs": [
        {
          "internalType": "bytes32",
          "name": "questionID",
          "type": "bytes32"
        }
      ],
      "name": "flag",
      "outputs": [],
      "stateMutability": "nonpayable",
      "type": "function"
    },
    {
      "inputs": [
        {
          "internalType": "bytes32",
          "name": "questionID",
          "type": "bytes32"
        }
      ],
      "name": "getExpectedPayouts",
      "outputs": [
        {
          "internalType": "uint256[]",
          "name": "",
          "type": "uint256[]"
        }
      ],
      "stateMutability": "view",
      "type": "function"
    },
    {
      "inputs": [
        {
          "internalType": "bytes32",
          "name": "questionID",
          "type": "bytes32"
        },
        {
          "internalType": "address",
          "name": "owner",
          "type": "address"
        }
      ],
      "name": "getLatestUpdate",
      "outputs": [
        {
          "components": [
            {
              "internalType": "uint256",
              "name": "timestamp",
              "type": "uint256"
            },
            {
              "internalType": "bytes",
              "name": "update",
              "type": "bytes"
            }
          ],
          "internalType": "struct AncillaryDataUpdate",
          "name": "",
          "type": "tuple"
        }
      ],
      "stateMutability": "view",
      "type": "function"
    },
    {
      "inputs": [
        {
          "internalType": "bytes32",
          "name": "questionID",
          "type": "bytes32"
        }
      ],
      "name": "getQuestion",
      "outputs": [
        {
          "components": [
            {
              "internalType": "uint256",
              "name": "requestTimestamp",
              "type": "uint256"
            },
            {
              "internalType": "uint256",
              "name": "reward",
              "type": "uint256"
            },
            {
              "internalType": "uint256",
              "name": "proposalBond",
              "type": "uint256"
            },
            {
              "internalType": "uint256",
              "name": "liveness",
              "type": "uint256"
            },
            {
              "internalType": "uint256",
              "name": "emergencyResolutionTimestamp",
              "type": "uint256"
            },
            {
              "internalType": "bool",
              "name": "resolved",
              "type": "bool"
            },
            {
              "internalType": "bool",
              "name": "paused",
              "type": "bool"
            },
            {
              "internalType": "bool",
              "name": "reset",
              "type": "bool"
            },
            {
              "internalType": "bool",
              "name": "refund",
              "type": "bool"
            },
            {
              "internalType": "address",
              "name": "rewardToken",
              "type": "address"
            },
            {
              "internalType": "address",
              "name": "creator",
              "type": "address"
            },
            {
              "internalType": "bytes",
              "name": "ancillaryData",
              "type": "bytes"
            }
          ],
          "internalType": "struct QuestionData",
          "name": "",
          "type": "tuple"
        }
      ],
      "stateMutability": "view",
      "type": "function"
    },
    {
      "inputs": [
        {
          "internalType": "bytes32",
          "name": "questionID",
          "type": "bytes32"
        },
        {
          "internalType": "address",
          "name": "owner",
          "type": "address"
        }
      ],
      "name": "getUpdates",
      "outputs": [
        {
          "components": [
            {
              "internalType": "uint256",
              "name": "timestamp",
              "type": "uint256"
            },
            {
              "internalType": "bytes",
              "name": "update",
              "type": "bytes"
            }
          ],
          "internalType": "struct AncillaryDataUpdate[]",
          "name": "",
          "type": "tuple[]"
        }
      ],
      "stateMutability": "view",
      "type": "function"
    },
    {
      "inputs": [
        {
          "internalType": "bytes",
          "name": "ancillaryData",
          "type": "bytes"
        },
        {
          "internalType": "address",
          "name": "rewardToken",
          "type": "address"
        },
        {
          "internalType": "uint256",
          "name": "reward",
          "type": "uint256"
        },
        {
          "internalType": "uint256",
          "name": "proposalBond",
          "type": "uint256"
        },
        {
          "internalType": "uint256",
          "name": "liveness",
          "type": "uint256"
        }
      ],
      "name": "initialize",
      "outputs": [
        {
          "internalType": "bytes32",
          "name": "questionID",
          "type": "bytes32"
        }
      ],
      "stateMutability": "nonpayable",
      "type": "function"
    },
    {
      "inputs": [
        {
          "internalType": "address",
          "name": "addr",
          "type": "address"
        }
      ],
      "name": "isAdmin",
      "outputs": [
        {
          "internalType": "bool",
          "name": "",
          "type": "bool"
        }
      ],
      "stateMutability": "view",
      "type": "function"
    },
    {
      "inputs": [
        {
          "internalType": "bytes32",
          "name": "questionID",
          "type": "bytes32"
        }
      ],
      "name": "isFlagged",
      "outputs": [
        {
          "internalType": "bool",
          "name": "",
          "type": "bool"
        }
      ],
      "stateMutability": "view",
      "type": "function"
    },
    {
      "inputs": [
        {
          "internalType": "bytes32",
          "name": "questionID",
          "type": "bytes32"
        }
      ],
      "name": "isInitialized",
      "outputs": [
        {
          "internalType": "bool",
          "name": "",
          "type": "bool"
        }
      ],
      "stateMutability": "view",
      "type": "function"
    },
    {
      "inputs": [],
      "name": "optimisticOracle",
      "outputs": [
        {
          "internalType": "contract IOptimisticOracleV2",
          "name": "",
          "type": "address"
        }
      ],
      "stateMutability": "view",
      "type": "function"
    },
    {
      "inputs": [
        {
          "internalType": "bytes32",
          "name": "questionID",
          "type": "bytes32"
        }
      ],
      "name": "pause",
      "outputs": [],
      "stateMutability": "nonpayable",
      "type": "function"
    },
    {
      "inputs": [
        {
          "internalType": "bytes32",
          "name": "questionID",
          "type": "bytes32"
        },
        {
          "internalType": "bytes",
          "name": "update",
          "type": "bytes"
        }
      ],
      "name": "postUpdate",
      "outputs": [],
      "stateMutability": "nonpayable",
      "type": "function"
    },
    {
      "inputs": [
        {
          "internalType": "bytes32",
          "name": "",
          "type": "bytes32"
        },
        {
          "internalType": "uint256",
          "name": "",
          "type": "uint256"
        },
        {
          "internalType": "bytes",
          "name": "ancillaryData",
          "type": "bytes"
        },
        {
          "internalType": "uint256",
          "name": "",
          "type": "uint256"
        }
      ],
      "name": "priceDisputed",
      "outputs": [],
      "stateMutability": "nonpayable",
      "type": "function"
    },
    {
      "inputs": [
        {
          "internalType": "bytes32",
          "name": "",
          "type": "bytes32"
        }
      ],
      "name": "questions",
      "outputs": [
        {
          "internalType": "uint256",
          "name": "requestTimestamp",
          "type": "uint256"
        },
        {
          "internalType": "uint256",
          "name": "reward",
          "type": "uint256"
        },
        {
          "internalType": "uint256",
          "name": "proposalBond",
          "type": "uint256"
        },
        {
          "internalType": "uint256",
          "name": "liveness",
          "type": "uint256"
        },
        {
          "internalType": "uint256",
          "name": "emergencyResolutionTimestamp",
          "type": "uint256"
        },
        {
          "internalType": "bool",
          "name": "resolved",
          "type": "bool"
        },
        {
          "internalType": "bool",
          "name": "paused",
          "type": "bool"
        },
        {
          "internalType": "bool",
          "name": "reset",
          "type": "bool"
        },
        {
          "internalType": "bool",
          "name": "refund",
          "type": "bool"
        },
        {
          "internalType": "address",
          "name": "rewardToken",
          "type": "address"
        },
        {
          "internalType": "address",
          "name": "creator",
          "type": "address"
        },
        {
          "internalType": "bytes",
          "name": "ancillaryData",
          "type": "bytes"
        }
      ],
      "stateMutability": "view",
      "type": "function"
    },
    {
      "inputs": [
        {
          "internalType": "bytes32",
          "name": "questionID",
          "type": "bytes32"
        }
      ],
      "name": "ready",
      "outputs": [
        {
          "internalType": "bool",
          "name": "",
          "type": "bool"
        }
      ],
      "stateMutability": "view",
      "type": "function"
    },
    {
      "inputs": [
        {
          "internalType": "address",
          "name": "admin",
          "type": "address"
        }
      ],
      "name": "removeAdmin",
      "outputs": [],
      "stateMutability": "nonpayable",
      "type": "function"
    },
    {
      "inputs": [],
      "name": "renounceAdmin",
      "outputs": [],
      "stateMutability": "nonpayable",
      "type": "function"
    },
    {
      "inputs": [
        {
          "internalType": "bytes32",
          "name": "questionID",
          "type": "bytes32"
        }
      ],
      "name": "reset",
      "outputs": [],
      "stateMutability": "nonpayable",
      "type": "function"
    },
    {
      "inputs": [
        {
          "internalType": "bytes32",
          "name": "questionID",
          "type": "bytes32"
        }
      ],
      "name": "resolve",
      "outputs": [],
      "stateMutability": "nonpayable",
      "type": "function"
    },
    {
      "inputs": [
        {
          "internalType": "bytes32",
          "name": "questionID",
          "type": "bytes32"
        }
      ],
      "name": "unflag",
      "outputs": [],
      "stateMutability": "nonpayable",
      "type": "function"
    },
    {
      "inputs": [
        {
          "internalType": "bytes32",
          "name": "questionID",
          "type": "bytes32"
        }
      ],
      "name": "unpause",
      "outputs": [],
      "stateMutability": "nonpayable",
      "type": "function"
    },
    {
      "inputs": [
        {
          "internalType": "bytes32",
          "name": "",
          "type": "bytes32"
        },
        {
          "internalType": "uint256",
          "name": "",
          "type": "uint256"
        }
      ],
      "name": "updates",
      "outputs": [
        {
          "internalType": "uint256",
          "name": "timestamp",
          "type": "uint256"
        },
        {
          "internalType": "bytes",
          "name": "update",
          "type": "bytes"
        }
      ],
      "stateMutability": "view",
      "type": "function"
    }
  ],
  "bytecode": {
    "object": "0x60e06040523480156200001157600080fd5b50604051620041c4380380620041c4833981016040819052620000349162000195565b3360009081526020819052604090819020600190556001600160a01b0383811660805290516302abf57960e61b81527127b83a34b6b4b9ba34b1a7b930b1b632ab1960711b6004820152829182169063aafd5e4090602401602060405180830381865afa158015620000aa573d6000803e3d6000fd5b505050506040513d601f19601f82011682018060405250810190620000d09190620001cd565b6001600160a01b0390811660a0526040516302abf57960e61b81527f436f6c6c61746572616c57686974656c6973740000000000000000000000000060048201529082169063aafd5e4090602401602060405180830381865afa1580156200013c573d6000803e3d6000fd5b505050506040513d601f19601f82011682018060405250810190620001629190620001cd565b6001600160a01b031660c05250620001f2915050565b80516001600160a01b03811681146200019057600080fd5b919050565b60008060408385031215620001a957600080fd5b620001b48362000178565b9150620001c46020840162000178565b90509250929050565b600060208284031215620001e057600080fd5b620001eb8262000178565b9392505050565b60805160a05160c051613f396200028b600039600081816104b4015261082801526000818161024f0152818161062701528181610cec0152818161221c015281816122d5015281816123af0152818161248d015281816125530152818161262e01528181612711015281816127e50152612a0601526000818161029b015281816109cb01528181611a020152612b6c0152613f396000f3fe608060405234801561001057600080fd5b50600436106101da5760003560e01c80636c66f07d116101045780639ce7c0e0116100a2578063ed3c7d4011610071578063ed3c7d40146104d6578063ed56531a146104e9578063f7b637bb146104fc578063fcac49a21461050f57600080fd5b80639ce7c0e014610469578063bf2dde381461047c578063c0cab0a21461048f578063e4ee614a146104af57600080fd5b806388697de4116100de57806388697de41461040257806389ab0871146104155780638bad0c0a1461043657806395addb901461043e57600080fd5b80636c66f07d146103b557806370480275146103dc57806378165a48146103ef57600080fd5b806324d7806c1161017c578063429b62e51161014b578063429b62e514610342578063555c56fc1461036257806358c039cd146103825780635c23bdf5146103a257600080fd5b806324d7806c146102bd57806327f8feac146103065780632f4dae9f1461030f57806334e5e28e1461032257600080fd5b8063185d1646116101b8578063185d16461461021a5780631cfaeaaf14610240578063223029221461024a57806322a9339f1461029657600080fd5b8063072d1259146101df5780630d8f2372146101f45780631785f53c14610207575b600080fd5b6101f26101ed36600461328b565b610522565b005b6101f26102023660046132d2565b61060f565b6101f261021536600461334c565b610745565b61022d610228366004613369565b6107e0565b6040519081526020015b60405180910390f35b61022d6202a30081565b6102717f000000000000000000000000000000000000000000000000000000000000000081565b60405173ffffffffffffffffffffffffffffffffffffffff9091168152602001610237565b6102717f000000000000000000000000000000000000000000000000000000000000000081565b6102f66102cb36600461334c565b73ffffffffffffffffffffffffffffffffffffffff1660009081526020819052604090205460011490565b6040519015158152602001610237565b61022d611fcb81565b6101f261031d3660046133d3565b610aac565b6103356103303660046133d3565b610b9b565b6040516102379190613427565b61022d61035036600461334c565b60006020819052908152604090205481565b61037561037036600461343a565b610da1565b60405161023791906134ff565b6103956103903660046133d3565b610ef8565b604051610237919061357f565b6101f26103b03660046133d3565b6110ea565b61022d7f5945535f4f525f4e4f5f5155455259000000000000000000000000000000000081565b6101f26103ea36600461334c565b611207565b6101f26103fd3660046133d3565b6112a3565b6101f26104103660046133d3565b611423565b61042861042336600461366c565b6115d0565b60405161023792919061368e565b6101f2611699565b61045161044c3660046133d3565b61171d565b6040516102379c9b9a999897969594939291906136a7565b6101f261047736600461374e565b61182f565b6102f661048a3660046133d3565b611aad565b6104a261049d36600461343a565b611ac6565b60405161023791906137cd565b6102717f000000000000000000000000000000000000000000000000000000000000000081565b6101f26104e43660046133d3565b611b4f565b6101f26104f73660046133d3565b611c4e565b6102f661050a3660046133d3565b611d80565b6102f661051d3660046133d3565b611d97565b60408051602081018490523391810191909152600090606001604080517fffffffffffffffffffffffffffffffffffffffffffffffffffffffffffffffe0818403018152828252805160209182012060008181526001808452848220868601909552428652858401888152855480830187559583529390912085516002909502019384559151909450908201906105b99082613879565b5050503373ffffffffffffffffffffffffffffffffffffffff16837e59e11815211969c0c4aaf3f498b52b6c2f2d14f286275d0862d70de22a836b846040516106029190613993565b60405180910390a3505050565b3373ffffffffffffffffffffffffffffffffffffffff7f0000000000000000000000000000000000000000000000000000000000000000161461067e576040517f05cef85500000000000000000000000000000000000000000000000000000000815260040160405180910390fd5b8151602080840191909120600081815260029092526040909120600581015460ff16156106e7576005810154600682015460018301546106e09273ffffffffffffffffffffffffffffffffffffffff6401000000009091048116921690611dae565b505061073f565b600581015462010000900460ff161561072f5760050180547fffffffffffffffffffffffffffffffffffffffffffffffffffffffff00ffffff1663010000001790555061073f565b61073c3083600084611dbe565b50505b50505050565b3360009081526020819052604090205460011461078e576040517f7bfa4b9f00000000000000000000000000000000000000000000000000000000815260040160405180910390fd5b73ffffffffffffffffffffffffffffffffffffffff81166000818152602081905260408082208290555133917f787a2e12f4a55b658b8f573c32432ee11a5e8b51677d1e1e937aaf6a0bb5776e91a350565b6040517f3a3ab67200000000000000000000000000000000000000000000000000000000815273ffffffffffffffffffffffffffffffffffffffff85811660048301526000917f000000000000000000000000000000000000000000000000000000000000000090911690633a3ab67290602401602060405180830381865afa158015610871573d6000803e3d6000fd5b505050506040513d601f19601f8201168201806040525081019061089591906139bb565b6108cb576040517f6a17288200000000000000000000000000000000000000000000000000000000815260040160405180910390fd5b60006108d73388611f1f565b90508651600014806108eb5750611fcb8151115b15610922576040517f9702d51200000000000000000000000000000000000000000000000000000000815260040160405180910390fd5b8080519060200120915061094760026000848152602001908152602001600020611f8a565b1561097e576040517f5daa87a000000000000000000000000000000000000000000000000000000000815260040160405180910390fd5b4261098f338484848b8b8b8b611fa6565b6040517fd96ee75400000000000000000000000000000000000000000000000000000000815230600482015260248101849052600260448201527f000000000000000000000000000000000000000000000000000000000000000073ffffffffffffffffffffffffffffffffffffffff169063d96ee75490606401600060405180830381600087803b158015610a2457600080fd5b505af1158015610a38573d6000803e3d6000fd5b50505050610a4b3382848a8a8a8a6121aa565b3373ffffffffffffffffffffffffffffffffffffffff1681847feee0897acd6893adcaf2ba5158191b3601098ab6bece35c5d57874340b64c5b7858b8b8b604051610a9994939291906139d6565b60405180910390a4505095945050505050565b33600090815260208190526040902054600114610af5576040517f7bfa4b9f00000000000000000000000000000000000000000000000000000000815260040160405180910390fd5b6000818152600260205260409020610b0c81611f8a565b610b42576040517f87138d5c00000000000000000000000000000000000000000000000000000000815260040160405180910390fd5b6005810180547fffffffffffffffffffffffffffffffffffffffffffffffffffffffffffff00ff16905560405182907f92d28918c5574e7fc0f4f948c39502682c81cfb4089b07b83f95b3264e5e5e0690600090a25050565b6000818152600260205260409020606090610bb581611f8a565b610beb576040517f87138d5c00000000000000000000000000000000000000000000000000000000815260040160405180910390fd5b600481015415610c27576040517fe8e3a25900000000000000000000000000000000000000000000000000000000815260040160405180910390fd5b6005810154610100900460ff1615610c6b576040517f9e87fac800000000000000000000000000000000000000000000000000000000815260040160405180910390fd5b610c74816127a3565b610caa576040517f579a480100000000000000000000000000000000000000000000000000000000815260040160405180910390fd5b80546040517fa9904f9b00000000000000000000000000000000000000000000000000000000815260009173ffffffffffffffffffffffffffffffffffffffff7f0000000000000000000000000000000000000000000000000000000000000000169163a9904f9b91610d489130917f5945535f4f525f4e4f5f51554552590000000000000000000000000000000000916007890190600401613ab6565b61020060405180830381865afa158015610d66573d6000803e3d6000fd5b505050506040513d601f19601f82011682018060405250810190610d8a9190613bab565b60c001519050610d9981612882565b949350505050565b6060600160008484604051602001610dd992919091825273ffffffffffffffffffffffffffffffffffffffff16602082015260400190565b604051602081830303815290604052805190602001208152602001908152602001600020805480602002602001604051908101604052809291908181526020016000905b82821015610eeb578382906000526020600020906002020160405180604001604052908160008201548152602001600182018054610e5a906137e0565b80601f0160208091040260200160405190810160405280929190818152602001828054610e86906137e0565b8015610ed35780601f10610ea857610100808354040283529160200191610ed3565b820191906000526020600020905b815481529060010190602001808311610eb657829003601f168201915b50505050508152505081526020019060010190610e1d565b5050505090505b92915050565b610f906040518061018001604052806000815260200160008152602001600081526020016000815260200160008152602001600015158152602001600015158152602001600015158152602001600015158152602001600073ffffffffffffffffffffffffffffffffffffffff168152602001600073ffffffffffffffffffffffffffffffffffffffff168152602001606081525090565b6000828152600260208181526040928390208351610180810185528154815260018201549281019290925291820154928101929092526003810154606083015260048101546080830152600581015460ff808216151560a08501526101008083048216151560c08601526201000083048216151560e08601526301000000830490911615159084015273ffffffffffffffffffffffffffffffffffffffff640100000000909104811661012084015260068201541661014083015260078101805461016084019190611061906137e0565b80601f016020809104026020016040519081016040528092919081815260200182805461108d906137e0565b80156110da5780601f106110af576101008083540402835291602001916110da565b820191906000526020600020905b8154815290600101906020018083116110bd57829003601f168201915b5050505050815250509050919050565b600081815260026020526040902061110181611f8a565b611137576040517f87138d5c00000000000000000000000000000000000000000000000000000000815260040160405180910390fd5b6005810154610100900460ff161561117b576040517f9e87fac800000000000000000000000000000000000000000000000000000000815260040160405180910390fd5b600581015460ff16156111ba576040517fea00f1a000000000000000000000000000000000000000000000000000000000815260040160405180910390fd5b6111c3816127a3565b6111f9576040517fb488fe4b00000000000000000000000000000000000000000000000000000000815260040160405180910390fd5b61120382826129c4565b5050565b33600090815260208190526040902054600114611250576040517f7bfa4b9f00000000000000000000000000000000000000000000000000000000815260040160405180910390fd5b73ffffffffffffffffffffffffffffffffffffffff8116600081815260208190526040808220600190555133917ff9ffabca9c8276e99321725bcb43fb076a6c66a54b7f21c4e8146d8519b417dc91a350565b336000908152602081905260409020546001146112ec576040517f7bfa4b9f00000000000000000000000000000000000000000000000000000000815260040160405180910390fd5b600081815260026020526040902061130381611f8a565b611339576040517f87138d5c00000000000000000000000000000000000000000000000000000000815260040160405180910390fd5b600481015415611375576040517fe8e3a25900000000000000000000000000000000000000000000000000000000815260040160405180910390fd5b600581015460ff16156113b4576040517fea00f1a000000000000000000000000000000000000000000000000000000000815260040160405180910390fd5b6113c16202a30042613c85565b60048201556005810180547fffffffffffffffffffffffffffffffffffffffffffffffffffffffffffff00ff1661010017905560405182907f2435a0347185933b12027c6f394a5fd9c03646dba233e956f50658719dfc0b3590600090a25050565b3360009081526020819052604090205460011461146c576040517f7bfa4b9f00000000000000000000000000000000000000000000000000000000815260040160405180910390fd5b600081815260026020526040902061148381611f8a565b6114b9576040517f87138d5c00000000000000000000000000000000000000000000000000000000815260040160405180910390fd5b60048101546114f4576040517fbb825d1800000000000000000000000000000000000000000000000000000000815260040160405180910390fd5b600581015460ff1615611533576040517fea00f1a000000000000000000000000000000000000000000000000000000000815260040160405180910390fd5b8060040154421115611571576040517fab0bf2ee00000000000000000000000000000000000000000000000000000000815260040160405180910390fd5b6000600482018190556005820180547fffffffffffffffffffffffffffffffffffffffffffffffffffffffffffff00ff16905560405183917f052435bc04fc49113a7bfd9198a92c0852ca622a621800f6da66d4b29b786c0591a25050565b600160205281600052604060002081815481106115ec57600080fd5b906000526020600020906002020160009150915050806000015490806001018054611616906137e0565b80601f0160208091040260200160405190810160405280929190818152602001828054611642906137e0565b801561168f5780601f106116645761010080835404028352916020019161168f565b820191906000526020600020905b81548152906001019060200180831161167257829003601f168201915b5050505050905082565b336000908152602081905260409020546001146116e2576040517f7bfa4b9f00000000000000000000000000000000000000000000000000000000815260040160405180910390fd5b336000818152602081905260408082208290555182917f787a2e12f4a55b658b8f573c32432ee11a5e8b51677d1e1e937aaf6a0bb5776e91a3565b60026020819052600091825260409091208054600182015492820154600383015460048401546005850154600686015460078701805496989795969495939460ff808516956101008604821695620100008104831695630100000082049093169464010000000090910473ffffffffffffffffffffffffffffffffffffffff908116949316926117ac906137e0565b80601f01602080910402602001604051908101604052809291908181526020018280546117d8906137e0565b80156118255780601f106117fa57610100808354040283529160200191611825565b820191906000526020600020905b81548152906001019060200180831161180857829003601f168201915b505050505090508c565b33600090815260208190526040902054600114611878576040517f7bfa4b9f00000000000000000000000000000000000000000000000000000000815260040160405180910390fd5b60008381526002602052604090206118908383612c14565b6118c6576040517f663493a000000000000000000000000000000000000000000000000000000000815260040160405180910390fd5b6118cf81611f8a565b611905576040517f87138d5c00000000000000000000000000000000000000000000000000000000815260040160405180910390fd5b6004810154611940576040517fbb825d1800000000000000000000000000000000000000000000000000000000815260040160405180910390fd5b806004015442101561197e576040517f2a2c257c00000000000000000000000000000000000000000000000000000000815260040160405180910390fd5b6005810180547fffffffffffffffffffffffffffffffffffffffffffffffffffffffffffffff0016600117908190556301000000900460ff16156119c5576119c581612c59565b6040517fc49298ac00000000000000000000000000000000000000000000000000000000815273ffffffffffffffffffffffffffffffffffffffff7f0000000000000000000000000000000000000000000000000000000000000000169063c49298ac90611a3b90879087908790600401613cec565b600060405180830381600087803b158015611a5557600080fd5b505af1158015611a69573d6000803e3d6000fd5b50505050837f6edb5841a476c9c29c34a652d1a44f785fe71a6157a3da9a6a6a589a1bd2945a8484604051611a9f929190613d0f565b60405180910390a250505050565b6000818152600260205260408120600401541515610ef2565b6040805180820190915260008152606060208201526000611ae78484610da1565b90508051600003611b1f5760405180604001604052806000815260200160405180602001604052806000815250815250915050610ef2565b8060018251611b2e9190613d23565b81518110611b3e57611b3e613d3a565b602002602001015191505092915050565b33600090815260208190526040902054600114611b98576040517f7bfa4b9f00000000000000000000000000000000000000000000000000000000815260040160405180910390fd5b6000818152600260205260409020611baf81611f8a565b611be5576040517f87138d5c00000000000000000000000000000000000000000000000000000000815260040160405180910390fd5b600581015460ff1615611c24576040517fea00f1a000000000000000000000000000000000000000000000000000000000815260040160405180910390fd5b60058101546301000000900460ff1615611c4157611c4181612c59565b6112033383600184611dbe565b33600090815260208190526040902054600114611c97576040517f7bfa4b9f00000000000000000000000000000000000000000000000000000000815260040160405180910390fd5b6000818152600260205260409020611cae81611f8a565b611ce4576040517f87138d5c00000000000000000000000000000000000000000000000000000000815260040160405180910390fd5b600581015460ff1615611d23576040517fea00f1a000000000000000000000000000000000000000000000000000000000815260040160405180910390fd5b6005810180547fffffffffffffffffffffffffffffffffffffffffffffffffffffffffffff00ff1661010017905560405182907f6ded7250a9d5f79aef5add44600fc20a74a0af6f4730baa4fc4ab87bf484b81290600090a25050565b6000818152600260205260408120610ef290611f8a565b6000818152600260205260408120610ef290612c97565b611db9838383612ce6565b505050565b428082556005820180547fffffffffffffffffffffffffffffffffffffffffffffffffffffffffff00ffff16620100001790558215611e22576005820180547fffffffffffffffffffffffffffffffffffffffffffffffffffffffff00ffffff1690555b611eed8582846007018054611e36906137e0565b80601f0160208091040260200160405190810160405280929190818152602001828054611e62906137e0565b8015611eaf5780601f10611e8457610100808354040283529160200191611eaf565b820191906000526020600020905b815481529060010190602001808311611e9257829003601f168201915b50505050508560050160049054906101000a900473ffffffffffffffffffffffffffffffffffffffff168660010154876002015488600301546121aa565b60405184907f7981b5832932948db4e32a4a16a0f44b2ce7ff088574afb9364b313f70f82e8f90600090a25050505050565b6060816040518060400160405280600d81526020017f2c696e697469616c697a65723a00000000000000000000000000000000000000815250611f6185612da4565b604051602001611f7393929190613d69565b604051602081830303815290604052905092915050565b600080826007018054611f9c906137e0565b9050119050919050565b604051806101800160405280868152602001848152602001838152602001828152602001600081526020016000151581526020016000151581526020016000151581526020016000151581526020018573ffffffffffffffffffffffffffffffffffffffff1681526020018973ffffffffffffffffffffffffffffffffffffffff1681526020018781525060026000898152602001908152602001600020600082015181600001556020820151816001015560408201518160020155606082015181600301556080820151816004015560a08201518160050160006101000a81548160ff02191690831515021790555060c08201518160050160016101000a81548160ff02191690831515021790555060e08201518160050160026101000a81548160ff0219169083151502179055506101008201518160050160036101000a81548160ff0219169083151502179055506101208201518160050160046101000a81548173ffffffffffffffffffffffffffffffffffffffff021916908373ffffffffffffffffffffffffffffffffffffffff1602179055506101408201518160060160006101000a81548173ffffffffffffffffffffffffffffffffffffffff021916908373ffffffffffffffffffffffffffffffffffffffff16021790555061016082015181600701908161219d9190613879565b5050505050505050505050565b82156123725773ffffffffffffffffffffffffffffffffffffffff871630146121d9576121d984883086612e32565b6040517fdd62ed3e00000000000000000000000000000000000000000000000000000000815230600482015273ffffffffffffffffffffffffffffffffffffffff7f00000000000000000000000000000000000000000000000000000000000000008116602483015284919086169063dd62ed3e90604401602060405180830381865afa15801561226e573d6000803e3d6000fd5b505050506040513d601f19601f820116820180604052508101906122929190613dac565b1015612372576040517f095ea7b300000000000000000000000000000000000000000000000000000000815273ffffffffffffffffffffffffffffffffffffffff7f0000000000000000000000000000000000000000000000000000000000000000811660048301527fffffffffffffffffffffffffffffffffffffffffffffffffffffffffffffffff602483015285169063095ea7b3906044016020604051808303816000875af115801561234c573d6000803e3d6000fd5b505050506040513d601f19601f8201168201806040525081019061237091906139bb565b505b6040517f11df92f100000000000000000000000000000000000000000000000000000000815273ffffffffffffffffffffffffffffffffffffffff7f000000000000000000000000000000000000000000000000000000000000000016906311df92f19061240c907f5945535f4f525f4e4f5f51554552590000000000000000000000000000000000908a908a908a908a90600401613dc5565b6020604051808303816000875af115801561242b573d6000803e3d6000fd5b505050506040513d601f19601f8201168201806040525081019061244f9190613dac565b506040517f120698af00000000000000000000000000000000000000000000000000000000815273ffffffffffffffffffffffffffffffffffffffff7f0000000000000000000000000000000000000000000000000000000000000000169063120698af906124e6907f5945535f4f525f4e4f5f51554552590000000000000000000000000000000000908a908a90600401613e0e565b600060405180830381600087803b15801561250057600080fd5b505af1158015612514573d6000803e3d6000fd5b50506040517ff327b07500000000000000000000000000000000000000000000000000000000815273ffffffffffffffffffffffffffffffffffffffff7f000000000000000000000000000000000000000000000000000000000000000016925063f327b07591506125b6907f5945535f4f525f4e4f5f51554552590000000000000000000000000000000000908a908a906000906001908290600401613e2d565b600060405180830381600087803b1580156125d057600080fd5b505af11580156125e4573d6000803e3d6000fd5b5050505060008211156126ce576040517fad5a755a00000000000000000000000000000000000000000000000000000000815273ffffffffffffffffffffffffffffffffffffffff7f0000000000000000000000000000000000000000000000000000000000000000169063ad5a755a90612689907f5945535f4f525f4e4f5f51554552590000000000000000000000000000000000908a908a908890600401613e6c565b6020604051808303816000875af11580156126a8573d6000803e3d6000fd5b505050506040513d601f19601f820116820180604052508101906126cc9190613dac565b505b801561279a576040517f473c45fe00000000000000000000000000000000000000000000000000000000815273ffffffffffffffffffffffffffffffffffffffff7f0000000000000000000000000000000000000000000000000000000000000000169063473c45fe9061276c907f5945535f4f525f4e4f5f51554552590000000000000000000000000000000000908a908a908790600401613e6c565b600060405180830381600087803b15801561278657600080fd5b505af115801561219d573d6000803e3d6000fd5b50505050505050565b80546040517fbc58ccaa00000000000000000000000000000000000000000000000000000000815260009173ffffffffffffffffffffffffffffffffffffffff7f0000000000000000000000000000000000000000000000000000000000000000169163bc58ccaa916128419130917f5945535f4f525f4e4f5f51554552590000000000000000000000000000000000916007890190600401613ab6565b602060405180830381865afa15801561285e573d6000803e3d6000fd5b505050506040513d601f19601f82011682018060405250810190610ef291906139bb565b6040805160028082526060808301845292600092919060208301908036833701905050905082158015906128be5750826706f05b59d3b2000014155b80156128d2575082670de0b6b3a764000014155b15612909576040517f86c9649e00000000000000000000000000000000000000000000000000000000815260040160405180910390fd5b826000036129585760008160008151811061292657612926613d3a565b60200260200101818152505060018160018151811061294757612947613d3a565b602002602001018181525050610ef2565b826706f05b59d3b200000361297c5760018160008151811061292657612926613d3a565b60018160008151811061299157612991613d3a565b6020026020010181815250506000816001815181106129b2576129b2613d3a565b60200260200101818152505092915050565b80546040517f53b5923900000000000000000000000000000000000000000000000000000000815260009173ffffffffffffffffffffffffffffffffffffffff7f000000000000000000000000000000000000000000000000000000000000000016916353b5923991612a61917f5945535f4f525f4e4f5f5155455259000000000000000000000000000000000091906007880190600401613e9c565b6020604051808303816000875af1158015612a80573d6000803e3d6000fd5b505050506040513d601f19601f82011682018060405250810190612aa49190613dac565b90507f80000000000000000000000000000000000000000000000000000000000000008103612ada57611db93084600185611dbe565b6005820180547fffffffffffffffffffffffffffffffffffffffffffffffffffffffffffffff0016600117908190556301000000900460ff1615612b2157612b2182612c59565b6000612b2c82612882565b6040517fc49298ac00000000000000000000000000000000000000000000000000000000815290915073ffffffffffffffffffffffffffffffffffffffff7f0000000000000000000000000000000000000000000000000000000000000000169063c49298ac90612ba39087908590600401613ebb565b600060405180830381600087803b158015612bbd57600080fd5b505af1158015612bd1573d6000803e3d6000fd5b5050505081847f566c3fbdd12dd86bb341787f6d531f79fd7ad4ce7e3ae2d15ac0ca1b601af9df83604051612c069190613427565b60405180910390a350505050565b6000612c52838380806020026020016040519081016040528093929190818152602001838360200280828437600092019190915250612e3e92505050565b9392505050565b600581015460068201546001830154612c949273ffffffffffffffffffffffffffffffffffffffff6401000000009091048116921690611dae565b50565b6000612ca282611f8a565b612cae57506000919050565b6005820154610100900460ff1615612cc857506000919050565b600582015460ff1615612cdd57506000919050565b610ef2826127a3565b60006040517fa9059cbb000000000000000000000000000000000000000000000000000000008152836004820152826024820152602060006044836000895af13d15601f3d116001600051141617169150508061073f576040517f08c379a000000000000000000000000000000000000000000000000000000000815260206004820152600f60248201527f5452414e534645525f4641494c4544000000000000000000000000000000000060448201526064015b60405180910390fd5b6060612dc56fffffffffffffffffffffffffffffffff602084901c16612f1f565b612de08360601b6bffffffffffffffffffffffff1916612f1f565b604051602001612e1c9291909182527fffffffffffffffff00000000000000000000000000000000000000000000000016602082015260280190565b6040516020818303038152906040529050919050565b61073f848484846130c1565b60008151600214612e5157506000919050565b81600081518110612e6457612e64613d3a565b60200260200101516001148015612eb9575081600181518110612e8957612e89613d3a565b602002602001015160001480612eb9575081600181518110612ead57612ead613d3a565b60200260200101516001145b15612ec657506001919050565b81600081518110612ed957612ed9613d3a565b60200260200101516000148015612f0a575081600181518110612efe57612efe613d3a565b60200260200101516001145b15612f1757506001919050565b506000919050565b6000808260001c9050806fffffffffffffffffffffffffffffffff169050806801000000000000000002811777ffffffffffffffff0000000000000000ffffffffffffffff169050806401000000000281177bffffffff00000000ffffffff00000000ffffffff00000000ffffffff16905080620100000281177dffff0000ffff0000ffff0000ffff0000ffff0000ffff0000ffff0000ffff169050806101000281177eff00ff00ff00ff00ff00ff00ff00ff00ff00ff00ff00ff00ff00ff00ff00ff1690508060100281177f0f0f0f0f0f0f0f0f0f0f0f0f0f0f0f0f0f0f0f0f0f0f0f0f0f0f0f0f0f0f0f0f16905060006008827f0808080808080808080808080808080808080808080808080808080808080808168161304357613043613ed4565b0460047f040404040404040404040404040404040404040404040404040404040404040484160460027f020202020202020202020202020202020202020202020202020202020202020285160417166027029091017f3030303030303030303030303030303030303030303030303030303030303030019392505050565b60006040517f23b872dd0000000000000000000000000000000000000000000000000000000081528460048201528360248201528260448201526020600060648360008a5af13d15601f3d1160016000511416171691505080613180576040517f08c379a000000000000000000000000000000000000000000000000000000000815260206004820152601460248201527f5452414e534645525f46524f4d5f4641494c45440000000000000000000000006044820152606401612d9b565b5050505050565b7f4e487b7100000000000000000000000000000000000000000000000000000000600052604160045260246000fd5b604051610140810167ffffffffffffffff811182821017156131da576131da613187565b60405290565b600082601f8301126131f157600080fd5b813567ffffffffffffffff8082111561320c5761320c613187565b604051601f83017fffffffffffffffffffffffffffffffffffffffffffffffffffffffffffffffe0908116603f0116810190828211818310171561325257613252613187565b8160405283815286602085880101111561326b57600080fd5b836020870160208301376000602085830101528094505050505092915050565b6000806040838503121561329e57600080fd5b82359150602083013567ffffffffffffffff8111156132bc57600080fd5b6132c8858286016131e0565b9150509250929050565b600080600080608085870312156132e857600080fd5b8435935060208501359250604085013567ffffffffffffffff81111561330d57600080fd5b613319878288016131e0565b949793965093946060013593505050565b73ffffffffffffffffffffffffffffffffffffffff81168114612c9457600080fd5b60006020828403121561335e57600080fd5b8135612c528161332a565b600080600080600060a0868803121561338157600080fd5b853567ffffffffffffffff81111561339857600080fd5b6133a4888289016131e0565b95505060208601356133b58161332a565b94979496505050506040830135926060810135926080909101359150565b6000602082840312156133e557600080fd5b5035919050565b600081518084526020808501945080840160005b8381101561341c57815187529582019590820190600101613400565b509495945050505050565b602081526000612c5260208301846133ec565b6000806040838503121561344d57600080fd5b82359150602083013561345f8161332a565b809150509250929050565b60005b8381101561348557818101518382015260200161346d565b8381111561073f5750506000910152565b600081518084526134ae81602086016020860161346a565b601f017fffffffffffffffffffffffffffffffffffffffffffffffffffffffffffffffe0169290920160200192915050565b805182526000602082015160406020850152610d996040850182613496565b6000602080830181845280855180835260408601915060408160051b870101925083870160005b82811015613572577fffffffffffffffffffffffffffffffffffffffffffffffffffffffffffffffc08886030184526135608583516134e0565b94509285019290850190600101613526565b5092979650505050505050565b6020815281516020820152602082015160408201526040820151606082015260608201516080820152608082015160a0820152600060a08301516135c760c084018215159052565b5060c083015180151560e08401525060e08301516101006135eb8185018315159052565b84015190506101206136008482018315159052565b84015190506101406136298482018373ffffffffffffffffffffffffffffffffffffffff169052565b84015190506101606136528482018373ffffffffffffffffffffffffffffffffffffffff169052565b840151610180848101529050610d996101a0840182613496565b6000806040838503121561367f57600080fd5b50508035926020909101359150565b828152604060208201526000610d996040830184613496565b60006101808e83528d60208401528c60408401528b60608401528a608084015289151560a084015288151560c084015287151560e084015286151561010084015273ffffffffffffffffffffffffffffffffffffffff861661012084015261372861014084018673ffffffffffffffffffffffffffffffffffffffff169052565b8061016084015261373b81840185613496565b9f9e505050505050505050505050505050565b60008060006040848603121561376357600080fd5b83359250602084013567ffffffffffffffff8082111561378257600080fd5b818601915086601f83011261379657600080fd5b8135818111156137a557600080fd5b8760208260051b85010111156137ba57600080fd5b6020830194508093505050509250925092565b602081526000612c5260208301846134e0565b600181811c908216806137f457607f821691505b60208210810361382d577f4e487b7100000000000000000000000000000000000000000000000000000000600052602260045260246000fd5b50919050565b601f821115611db957600081815260208120601f850160051c8101602086101561385a5750805b601f850160051c820191505b8181101561073c57828155600101613866565b815167ffffffffffffffff81111561389357613893613187565b6138a7816138a184546137e0565b84613833565b602080601f8311600181146138fa57600084156138c45750858301515b7fffffffffffffffffffffffffffffffffffffffffffffffffffffffffffffffff600386901b1c1916600185901b17855561073c565b6000858152602081207fffffffffffffffffffffffffffffffffffffffffffffffffffffffffffffffe08616915b8281101561394757888601518255948401946001909101908401613928565b508582101561398357878501517fffffffffffffffffffffffffffffffffffffffffffffffffffffffffffffffff600388901b60f8161c191681555b5050505050600190811b01905550565b602081526000612c526020830184613496565b805180151581146139b657600080fd5b919050565b6000602082840312156139cd57600080fd5b612c52826139a6565b6080815260006139e96080830187613496565b73ffffffffffffffffffffffffffffffffffffffff959095166020830152506040810192909252606090910152919050565b60008154613a28816137e0565b808552602060018381168015613a455760018114613a7d57613aab565b7fffffffffffffffffffffffffffffffffffffffffffffffffffffffffffffff008516838901528284151560051b8901019550613aab565b866000528260002060005b85811015613aa35781548a8201860152908301908401613a88565b890184019650505b505050505092915050565b73ffffffffffffffffffffffffffffffffffffffff85168152836020820152826040820152608060608201526000613af16080830184613a1b565b9695505050505050565b80516139b68161332a565b600060e08284031215613b1857600080fd5b60405160e0810181811067ffffffffffffffff82111715613b3b57613b3b613187565b604052905080613b4a836139a6565b8152613b58602084016139a6565b6020820152613b69604084016139a6565b6040820152613b7a606084016139a6565b6060820152613b8b608084016139a6565b608082015260a083015160a082015260c083015160c08201525092915050565b60006102008284031215613bbe57600080fd5b613bc66131b6565b613bcf83613afb565b8152613bdd60208401613afb565b6020820152613bee60408401613afb565b6040820152613bff606084016139a6565b6060820152613c118460808501613b06565b608082015261016083015160a082015261018083015160c08201526101a083015160e08201526101c08301516101008201526101e09092015161012083015250919050565b7f4e487b7100000000000000000000000000000000000000000000000000000000600052601160045260246000fd5b60008219821115613c9857613c98613c56565b500190565b81835260007f07ffffffffffffffffffffffffffffffffffffffffffffffffffffffffffffff831115613ccf57600080fd5b8260051b8083602087013760009401602001938452509192915050565b838152604060208201526000613d06604083018486613c9d565b95945050505050565b602081526000610d99602083018486613c9d565b600082821015613d3557613d35613c56565b500390565b7f4e487b7100000000000000000000000000000000000000000000000000000000600052603260045260246000fd5b60008451613d7b81846020890161346a565b845190830190613d8f81836020890161346a565b8451910190613da281836020880161346a565b0195945050505050565b600060208284031215613dbe57600080fd5b5051919050565b85815284602082015260a060408201526000613de460a0830186613496565b73ffffffffffffffffffffffffffffffffffffffff94909416606083015250608001529392505050565b838152826020820152606060408201526000613d066060830184613496565b86815285602082015260c060408201526000613e4c60c0830187613496565b9415156060830152509115156080830152151560a0909101529392505050565b848152836020820152608060408201526000613e8b6080830185613496565b905082606083015295945050505050565b838152826020820152606060408201526000613d066060830184613a1b565b828152604060208201526000610d9960408301846133ec565b7f4e487b7100000000000000000000000000000000000000000000000000000000600052601260045260246000fdfea2646970667358221220c52b29a345f454813546b75489f959b031d1ed699ee3a67bd392254cf0b74e9164736f6c634300080f0033",
    "linkReferences": {}
  },
  "methodIdentifiers": {
    "EMERGENCY_SAFETY_PERIOD()": "1cfaeaaf",
    "MAX_ANCILLARY_DATA()": "27f8feac",
    "YES_OR_NO_IDENTIFIER()": "6c66f07d",
    "addAdmin(address)": "70480275",
    "admins(address)": "429b62e5",
    "collateralWhitelist()": "e4ee614a",
    "ctf()": "22a9339f",
    "emergencyResolve(bytes32,uint256[])": "9ce7c0e0",
    "flag(bytes32)": "78165a48",
    "getExpectedPayouts(bytes32)": "34e5e28e",
    "getLatestUpdate(bytes32,address)": "c0cab0a2",
    "getQuestion(bytes32)": "58c039cd",
    "getUpdates(bytes32,address)": "555c56fc",
    "initialize(bytes,address,uint256,uint256,uint256)": "185d1646",
    "isAdmin(address)": "24d7806c",
    "isFlagged(bytes32)": "bf2dde38",
    "isInitialized(bytes32)": "f7b637bb",
    "optimisticOracle()": "22302922",
    "pause(bytes32)": "ed56531a",
    "postUpdate(bytes32,bytes)": "072d1259",
    "priceDisputed(bytes32,uint256,bytes,uint256)": "0d8f2372",
    "questions(bytes32)": "95addb90",
    "ready(bytes32)": "fcac49a2",
    "removeAdmin(address)": "1785f53c",
    "renounceAdmin()": "8bad0c0a",
    "reset(bytes32)": "ed3c7d40",
    "resolve(bytes32)": "5c23bdf5",
    "unflag(bytes32)": "88697de4",
    "unpause(bytes32)": "2f4dae9f",
    "updates(bytes32,uint256)": "89ab0871"
  },
  "id": 13
}